:1000000012C02BC083C028C0BBC026C025C024C0DE
:1000100023C022C021C020C01FC01EC01DC01CC0E4
:100020001BC01AC019C011241FBECFEDCDBF10E0F8
:10003000A0E6B0E0ECE6F2E002C005900D92A23638
:10004000B107D9F720E0A2E6B0E001C01D92A638C2
:10005000B207E1F7F7D008C1D3CF1F920F920FB6C6
:100060000F9211242F933F934F935F938F939F93FE
:10007000EF93FF9346B3809163008F31D0F52091C9
:100080006300842F90E0E0916500211106C0F0E04C
:1000900080589F4F9595879510C02E2F30E0E091A6
:1000A0006500F0E03197EF71FF27EA59FF4F50816B
:1000B000850F911D95958795F901EA59FF4F80832A
:1000C000E0916500F0E03196EF71FF27EA59FF4FAC
:1000D0004083809165008E5F8F7180936500809171
:1000E00063008E5F80936300809163008F3108F01E
:1000F000969AFF91EF919F918F915F914F913F91D0
:100100002F910F900FBE0F901F9018951F920F9276
:100110000FB60F9211248F938091620081111CC041
:1001200081E08093620085B78B7F85BF85B788604B
:1001300085BF10926500109264001092630096983B
:100140001DBC1CBC89B7806489BF8BB780648BBF22
:1001500090988C9A909A0EC01092620085B78C602D
:1001600085BF89B78F7B89BF96988BB78F7B8BBFF5
:100170008C9890988F910F900FBE0F901F901895AC
:100180001F920F920FB60F9211248F939F93EF93AC
:10019000FF93809163008823B9F0E0916400F0E060
:1001A000EA59FF4F8081909164009F5F9F71909307
:1001B000640090916300915090936300909163006C
:1001C0009E3119F4969801C080E8909160009817CC
:1001D00019F08CBF80936000FF91EF919F918F91F8
:1001E0000F900FBE0F901F90189517BA8A988B9892
:1001F0008C98889A8D9A8E9A909896988FEF88BB53
:10020000929A939A85B78E7F85BF85B7826085BFA6
:1002100085B78C6085BF8BB78F7B8BBF8BB78068B2
:100220008BBF1FBC89E08EBD86E794E09BBD8ABD75
:1002300089B78F7B89BF83E280BF81E083BF80E87D
:100240008CBF0895D2DF7894809162008111FCCF39
:1002500096B386B38917E9F30000000000000000A0
:0C026000000086B38CBFF0CFF894FFCFF5
:02026C00800010
:00000001FF
